:020000040800F2
:100000000050002021020008270200082B020008EF
:100010009D020008A1020008E9020008000000009B
:100020000000000000000000000000003103000894
:10003000350300080000000039030008A52B000864
:10004000212800082128000821280008212800086C
:10005000212800082128000821280008212800085C
:10006000212800082128000821280008212800084C
:10007000212800082128000821280008212800083C
:10008000212800082128000821280008212800082C
:100090000132000821280008212800082128000832
:1000A000212800082128000821280008212800080C
:1000B00021280008212800082128000821280008FC
:1000C00021280008212800082128000821280008EC
:1000D00021280008212800082128000821280008DC
:1000E000E52B000821280008212800080000000056
:1000F0000000000000000000000000000000000000
:1001000000000000000000005FF808F100B583B0B7
:1001100002F0ECFA304B314A1360314A1360314B34
:10012000314A32498B4204D21168196004330432D7
:10013000F7E72A4B1A682E4B9A4200D0FEE7284B6D
:100140001A682C4B9A42F9D1234B2B4A13602B4A45
:1001500013602B4B02E000221A600433294A9342B9
:10016000F9D3254B1B6813B9244B1B6803B1FEE779
:1001700002F0C8FA694601A802F064FA224C234B47
:10018000E41AA4100025AC4214DC214C214BE41AE3
:10019000A4100025AC4213DC0099019802F088FEFF
:1001A00005461D4C1D4BE41AA410002C0EDC2846FD
:1001B00002F024FA154B53F8253098470135E2E751
:1001C000144B53F8253098470135E3E7013C134BB6
:1001D00053F824309847E8E7BABADECA0000002096
:1001E000F8010020000000205C4B0008FC0100200A
:1001F0007856341232547698FC0100208C2100206D
:10020000FC01002090210020740300087403000802
:1002100074030008740300087403000874030008E2
:1002200008B5FFF773FF00BEFEE71EF0040F0CBF1A
:10023000EFF30880EFF309807146414A10472DE93A
:10024000F04182B004468846124B5E6B9F6B9D6AFC
:100250001B6B13F0020F03D00E4BDB6A002B0CDB81
:100260000D4802F0F7F9CDF800803B4632462946AA
:10027000204602F04BFA00BEFEE74BF6AB6102F0FF
:10028000BFFA0028ECD0034B4FF00042DA6202B014
:10029000BDE8F08100ED00E0384A000800BEFEE74E
:1002A0001EF0040F0CBFEFF30880EFF309807146D6
:1002B000244A10472DE9F04182B004468846084B95
:1002C0005E6B9F6B9D6A074802F0C4F9CDF8008011
:1002D0003B4632462946204602F018FA00BEFEE7A9
:1002E00000ED00E0484A00081EF0040F0CBFEFF3D9
:1002F0000880EFF309807146134A10472DE9F04159
:1003000082B004468846084B5E6B9F6B9D6A074827
:1003100002F0A0F9CDF800803B463246294620463F
:1003200002F0F4F900BEFEE700ED00E0544A0008D8
:1003300000BEFEE700BEFEE700BEFEE7704700001D
:0C0340003F020008B5020008FD020008A2
:10034C005C4B000800000020FC0100205C4B000806
:10035C000000001000000010FC0100209021002083
:08036C00000000100000001069
:1003740010B504460E4B18784FF47A73B3FBF0F3C0
:100384000C4A1068B0FBF3F000F08EF868B90F2C3B
:1003940001D901200AE0002221464FF0FF3000F08D
:1003A40043F8054B1C60002000E0012010BD00BF95
:1003B40004000020140000200800002008B5074AAB
:1003C400136843F010031360032000F01BF80020AF
:1003D400FFF7CEFF02F07EFE002008BD00200240A1
:1003E400034A1168034B1B780B441360704700BF2A
:1003F400B804002004000020014B1868704700BFB7
:10040400B8040020074AD36823F4E0631B041B0CE0
:10041400000200F4E060184340F0BF6040F4003094
:10042400D060704700ED00E030B4174BDB68C3F3D5
:100434000223C3F10704042C28BF04241D1D062D28
:1004440018D9033B4FF0FF3505FA04F421EA0401FF
:10045400994005FA03F322EA0303194300280BDB4E
:100464000901C9B200F1604000F5614080F8001351
:1004740030BC70470023E5E700F00F000901C9B262
:10048400024B1954F4E700BF00ED00E014ED00E066
:1004940000F01F02400901239340024A42F8203031
:1004A400704700BF00E100E00138B0F1807F0AD25C
:1004B400064B5860064AF02182F823100020986009
:1004C40007221A6070470120704700BF10E000E067
:1004D40000ED00E0042805D0054A136823F0040366
:1004E40013607047024A136843F0040313607047B3
:1004F40010E000E0704708B5FFF7FCFF08BD58B1F5
:1005040010B5044643791BB101236371002010BD6B
:10051400037102F027FEF7E701207047F0B482B0C0
:1005240000263546A1E0002C59D0012C00D1CE681C
:10053400FF2B68D88446FF2B68D8AC00DCF8002079
:100544000F27A74022EA070206FA04F42243CCF854
:1005540000204A6812F0805F00F086805E4A946949
:1005640044F001049461926902F001020192019A3B
:10057400AC08A71C594A52F8272005F00307BF000E
:100584004FF00F0C0CFA07FC22EA0C0C544A904270
:1005940042D002F5806290427FD002F580629042A0
:1005A4007DD002F58062904234D0042235E04D4F74
:1005B400BC4214D00BD94C4FBC4210D007F5803745
:1005C400BC420CD0A7F58017BC42B1D107E0A7F517
:1005D4008017BC4203D007F58037BC42A8D18C6891
:1005E4007CB1012C08D042610826A1E7CE68083608
:1005F4009EE7CE680C369BE70261082698E7002642
:1006040096E7042694E700F1040C94E7A5F10804A6
:10061400A40093E7032200E00022BA4042EA0C025D
:1006240002342E4F47F824204A6812F4803F38D011
:100634002E4C22681A4322604A6812F4003F36D0D6
:100644002A4C62681A4362604A6812F4801F34D0EC
:10065400264CA2681A43A2604A6812F4001F32D0E2
:10066400224CE2681343E36001350F2D31D8012297
:10067400AA400B6813409A42F6D14C68122CB8D0A9
:1006840095D8022CB2D07FF64EAF032CB7D0112CE4
:100694007FF44EAFCE6804364AE70122BDE702225A
:1006A400BBE7124C226822EA03022260C4E70F4C23
:1006B400626822EA03026260C6E70C4CA26822EA7E
:1006C4000302A260C8E7094CE26822EA0303E3607C
:1006D400CAE702B0F0BC70470010024000000140BD
:1006E4000008014000002110000031100004014006
:1006F40012B909040161704701617047002866D08E
:10070400F0B587B0044690F82934C3B1032384F8C4
:100714002934206801F0C8FA254655F8107B6E4646
:100724000FCD0FC62B683360231D0ECB384601F066
:10073400ACFA0021206801F0C1FA002315E080F82A
:10074400283402F0E7FDE1E704EB4312012182F8CB
:10075400291082F828309386002182F82B109163A7
:10076400D1639A1C5201A15001330E2BECD9002302
:1007740012E004EB4312002182F8291282F8283295
:10078400938682F82B12C2F83812C2F83C1203F195
:1007940012025201A15001330E2BEAD9254655F815
:1007A400107B6E460FCD0FC62B683360231D0ECB16
:1007B400384601F085FA002584F82450012384F892
:1007C4002934206801F090FD284607B0F0BD0120CF
:1007D400704790F82834012B10D010B5044601213D
:1007E40080F8281402F0D5FE206801F07BFD206813
:1007F40001F052FA002084F8280410BD022070474A
:1008040090F82834012B0DD010B50446012380F84C
:10081400283480F82410006801F05EFD002084F87C
:10082400280410BD0220704738B54DB2002D1CDBE2
:1008340001F07F04640104F50A74044401F07F01AB
:100844002170ED0F65702261E37090F82834012B5C
:1008540011D00546012380F828342146006801F0B0
:1008640045FA002085F8280438BD01F07F046401AE
:1008740028340444E2E70220F6E74AB2002A1BDBEC
:1008840001F07F035B0103F50A73034401F07F0168
:100894001970D20F5A7090F82824012A12D010B57A
:1008A4000446012280F828241946006801F0B2FBAE
:1008B400002084F8280410BD01F07F035B01283375
:1008C4000344E3E70220704770B501F07F056C0133
:1008D40004F50A7101440444C4F83C2205F11202EF
:1008E4005201861883500023736084F8293284F8F7
:1008F400285225B1006801F013FD002070BD006886
:1009040001F00EFDF9E701F00F01123100EB411186
:100914008888704770B501F07F056C0104F12801E7
:1009240001440444E263AA1C520186188350002344
:100934007360012384F8293084F8285025B10068B5
:1009440001F0EEFC002070BD006801F0E9FCF9E75D
:1009540070B582B004460023ADF80630ADF804301B
:100964002068B0F844309BB2ADF8063013F4004F61
:1009740000F00D82BDF8065015F00F0540F0C2805E
:10098400BDF8063013F0100F50D003889BB2ADF8B9
:100994000430BDF8043013F4006F79D1BDF804308D
:1009A40013F4004FDCD0038823F070031B051B0DE8
:1009B40003802068B0F8503094F8282203EBC20377
:1009C400063300EB4303D3F80034C3F30903C4F83C
:1009D4004432002B7CD10021204602F0C3FC236862
:1009E400B3F85020063203EB4203D4F838123E2900
:1009F4007CD9C1F34F1211F01F0F01D1013A92B209
:100A04006FEAC2626FEA524292B2C3F800242268CB
:100A140013889BB223F4804323F0700383F4405380
:100A240043F4004343F08003138099E703889BB2A7
:100A340023F4E14323F070039BB203802268B2F8ED
:100A4400503094F8281003EBC103023302EB430344
:100A5400D3F80034C3F309036364E26B1344E36320
:100A64000021204602F088FC94F82430002B3FF447
:100A740077AF236C002B7FF473AF94F82430226893
:100A840043F08003A2F84C30002384F8243067E755
:100A9400B0F8503094F8282203EBC203063300EB7D
:100AA4004303D3F80034C3F30903C4F84432B4F85D
:100AB4002C2204F22C4101F090FD2268138823F0CB
:100AC40070031B051B0D1380204602F043FC47E70F
:100AD400B4F82C22D4F83C1201F07FFDD4F844225F
:100AE400D4F83C321344C4F83C3274E7C1F34F02E7
:100AF40011F0010F01D0013292B2920292B2C3F806
:100B0400002484E730F825309BB2ADF80430BDF8FA
:100B1400043013F4004F35D1BDF8043013F0800FC6
:100B24003FF41EAF226832F825309BB223F4E14330
:100B340023F070039BB222F8253004EB451393F89D
:100B44003230002B40F0B2802068B0F8503004EB13
:100B5400451292F8282003EBC203023300EB43034F
:100B6400D3F80034C3F30903AA1C04EB4212536004
:100B7400002B00F0C68004EB45118A8DC96B01F08F
:100B8400BAFBBEE030F8253023F070031B051B0DC3
:100B940020F8253004EB451393F83232D3B920689A
:100BA400B0F8503004EB451292F8282203EBC2034C
:100BB400063300EB4303B3F80064C6F3090686B3B7
:100BC40004EB45113346B1F82C22D1F83C1201F064
:100BD40004FD26E0206804EB451393F8282230F83E
:100BE400223013F4804F42D0B0F8503003EBC203EC
:100BF400023300EB4303B3F80064C6F3090666BB93
:100C0400226804EB451393F8281232F8213023F0BC
:100C1400F0031B051B0D43F4004343F0C00322F80B
:100C2400213005F112035B01E1184A6832444A603D
:100C340004EB4511D1F83C223244C1F83C22E3587C
:100C44001BB1D1F838128E4228D204EB451393F825
:100C54002812204602F086FB5EE704EB451133467A
:100C6400B1F82E22D1F83C1201F0B7FCC8E7B0F875
:100C7400503003EBC203063300EB4303B3F80064C4
:100C8400C6F30906002EBBD004EB45113346B1F878
:100C94003022D1F83C1201F0A0FCB1E704EB45117D
:100CA40091F828122046FFF70FFE35E7206804EB81
:100CB400451393F8282030F8223013F0400F46D023
:100CC400B0F8503003EBC203023300EB4303D3F814
:100CD4000034C3F30903AA1C04EB421253607BBB28
:100CE400226804EB451393F8281032F8213023F0DE
:100CF400F0031B051B0D43F4404343F0800322F82B
:100D040021302268B2F8503004EB451090F82810D6
:100D140003EBC103023302EB4303D3F80024C2F311
:100D24000902AB1C5B01E1184A60C16B0A44C2634F
:100D3400E35823BB90F82810204602F01DFB0FE671
:100D440004EB4511CA8DC96B01F0D5FAC8E7B0F8B8
:100D5400503003EBC203063300EB4303D3F80034F3
:100D6400C3F30903AA1C04EB42125360002BB7D04F
:100D740004EB45110A8EC96B01F0BDFAB0E704EB30
:100D8400451595F828102046FFF7C4FDE8E5002036
:100D940002B070BD10B50446006801F0A7FA10F463
:100DA400004F45D1206801F0A1FA10F4806F43D1BF
:100DB400206801F09BFA10F4804F08D02268B2F842
:100DC40044309BB223F480439BB2A2F844302068A1
:100DD40001F08CFA10F4005F08D02268B2F84430B5
:100DE4009BB223F400539BB2A2F84430206801F074
:100DF4007DFA10F4805F30D1206801F077FA10F4A6
:100E0400006F49D1206801F071FA10F4007F64D1B9
:100E1400206801F06BFA10F4807F08D02268B2F8E1
:100E240044309BB223F480739BB2A2F8443010BDCB
:100E34002046FFF78DFDB5E72268B2F844309BB237
:100E440023F480639BB2A2F84430204602F0A3FA54
:100E540000212046FFF7D4FCAAE72268B2F840300C
:100E64009BB223F004039BB2A2F840302268B2F88C
:100E740040309BB223F008039BB2A2F840302046D6
:100E840002F0A6FA2268B2F844309BB223F48053ED
:100E94009BB2A2F84430AFE72268B2F8403043F086
:100EA4000803A2F840302268B2F844309BB223F41D
:100EB40000639BB2A2F844302268B2F8403043F099
:100EC4000403A2F84030206801F010FA10F4805FA7
:100ED40098D1204602F06CFA94E72268B2F84430C4
:100EE4009BB223F400739BB2A2F84430204602F074
:100EF4004CFA8DE738B54AB2002A1BDB4B0103F5E7
:100F04000A73034401249C7001F07F051D70D20F05
:100F14005A7090F82824A24218D00446012280F87E
:100F240028241946006801F057F94DB1002084F8CF
:100F3400280438BD01F07F035B0128330344E1E753
:100F440004F22C41206801F0D4F9EFE70220F0E725
:100F540010B54AB2002A1ADB4B0103F50A730344A5
:100F640000249C7001F07F011970D20F5A7090F820
:100F74002824012A11D00446012280F82824194685
:100F8400006801F060F9002084F8280410BD01F025
:100F94007F035B0128330344E2E70220F6E711F004
:100FA400800F0CD001F07F014901283101445AB16E
:100FB40001228A72CB801B0C0B81002070474901EF
:100FC40001F50A710144F2E78A728B80F5E70000AB
:100FD40082B0084B1B68084AA2FB03235B0A00FB90
:100FE40003F0019000BF019B5A1E0192002BF9D11E
:100FF40002B0704714000020D34D621070B582B067
:101004000446036813F0010F2CD0AB4B5B6803F06C
:101014000C03042B1DD0A84B5B6803F00C03082BB6
:1010240012D06368B3F5803F41D0002B55D103F152
:10103400804303F504331A6822F480321A601A6874
:1010440022F480221A6037E09B4B5B6813F4803FE4
:10105400E7D0994B1B6813F4003F03D06368002B5F
:1010640000F0AE81236813F0020F76D0924B5B68D8
:1010740013F00C0F5FD0904B5B6803F00C03082B4C
:1010840054D02369002B00F08A808C4B01221A6013
:10109400FFF7B2F90546884B1B6813F0020F75D1B0
:1010A400FFF7AAF9401B0228F5D903208BE1824AF5
:1010B400136843F480331360636843B3FFF79CF908
:1010C40005467D4B1B6813F4003FCBD1FFF794F921
:1010D400401B6428F5D9032075E1B3F5A02F09D08E
:1010E400754B1A6822F480321A601A6822F480223E
:1010F4001A60E1E703F18043A3F53C331A6842F434
:1011040080221A601A6842F480321A60D4E7FFF72A
:1011140073F90546684B1B6813F4003FA2D0FFF730
:101124006BF9401B6428F5D903204CE1624B5B68E2
:1011340013F4803FA5D1604B1B6813F0020F04D059
:101144002369012B01D001203DE15B4A136823F0A0
:10115400F803616943EAC1031360236813F0080FBD
:1011640032D0A369002B5BD0554B01221A60FFF7E4
:1011740043F90546504B5B6A13F0020F21D1FFF788
:101184003BF9401B0228F5D903201CE14A4A1368A5
:1011940023F0F803616943EAC1031360DDE7474BB9
:1011A40000221A60FFF728F90546434B1B6813F029
:1011B400020FD2D0FFF720F9401B0228F5D90320F3
:1011C40001E10120FFF704FF236813F0040F00F08E
:1011D4009780394BDB6913F0805F33D1364BDA6982
:1011E40042F08052DA61DB6903F080530193019B82
:1011F4000125344B1B6813F4807F25D0E368012B51
:1012040036D0002B4CD103F1804303F504331A6A22
:1012140022F001021A621A6A22F004021A622CE015
:10122400274B00221A60FFF7E7F80546224B5B6A5A
:1012340013F0020FC8D0FFF7DFF8401B0228F5D9DE
:101244000320C0E00025D4E71E4A136843F48073EA
:101254001360FFF7D1F806461A4B1B6813F4807F1E
:10126400CCD1FFF7C9F8801B6428F5D90320AAE084
:10127400114A136A43F001031362E36873B3FFF77F
:10128400BBF806460C4B1B6A13F0020F37D1FFF76D
:10129400B3F8801B41F288339842F3D9032092E0DB
:1012A400052B11D0044B1A6A22F001021A621A6A41
:1012B40022F004021A62E0E70010024000004242F9
:1012C4008004424200700040414B1A6A42F004021A
:1012D4001A621A6A42F001021A62CEE7FFF78CF82A
:1012E40006463B4B1B6A13F0020F08D0FFF784F845
:1012F400801B41F288339842F3D9032063E0E5B9B7
:10130400E369002B5ED0324A526802F00C02082ACC
:101314005BD0022B17D02F4B00221A60FFF76CF81A
:1013240004462B4B1B6813F0007F47D0FFF764F88B
:10133400001B0228F5D9032045E0254AD36923F090
:101344008053D361DCE7234B00221A60FFF754F883
:1013540005461F4B1B6813F0007F06D0FFF74CF8BF
:10136400401B0228F5D903202DE0236AB3F5803F02
:101374001AD017494B6823F47413226A606A024333
:1013840013434B60134B01221A60FFF735F80446F0
:101394000F4B1B6813F0007F0ED1FFF72DF8001BD5
:1013A4000228F5D903200EE0094A536823F40033D8
:1013B400A1680B435360DCE7002004E0002002E056
:1013C400012000E0002002B070BD0120FBE700BF57
:1013D400001002406000424230B587B00D46002341
:1013E400049302230393032305934FF4807302931E
:1013F4000A4CA36943F00403A361A36903F0040343
:101404000193019B02A90648FFF788F8616821F05F
:10141400E0612943616007B030BD00BF00100240A5
:101424000008014010B487B0184C94E80F000DF187
:10143400180C0CE90F00238AADF80430144B5B68D8
:1014440003F00C02042A03D0082A05D0114800E056
:10145400114807B010BC7047C3F3834206A90A447D
:1014640012F8102C13F4803F0CD0094B5B68C3F3C3
:1014740040430B4413F8143C074800FB02F0B0FB54
:10148400F3F0E6E7054800FB02F0E2E7084900084C
:101494000010024000127A00003E490000093D009D
:1014A400594B1B6803F007038B420CD2564A13684E
:1014B40023F007030B431360136803F007038B4205
:1014C40001D00120704770B5036813F0020F06D0F5
:1014D4004E4A536823F0F0038468234353600C4658
:1014E4000546036813F0010F52D04368012B23D043
:1014F400022B28D0454A126812F0020F00F08280B5
:1015040042494A6822F0030213434B60FEF774FF1A
:1015140006466B68012B1DD0022B2AD03B4B5B681F
:1015240013F00C0F34D0FEF767FF801B41F28833B1
:101534009842F3D9032064E0344A126812F4003F5D
:10154400DED101205DE0314A126812F0007FD7D16C
:10155400012056E02D4B5B6803F00C03042B17D0DD
:10156400FEF74AFF801B41F288339842F2D90320E8
:1015740047E0264B5B6803F00C03082B08D0FEF70A
:101584003BFF801B41F288339842F2D9032038E0B4
:101594001D4B1B6803F00703A3420CD91A4A1368B6
:1015A40023F0070323431360136803F00703A342E4
:1015B40001D0012025E02B6813F0040F06D0134A54
:1015C400536823F4E063E9680B4353602B6813F01A
:1015D400080F07D00D4A536823F46053296943EA7E
:1015E400C1035360FFF71EFF084B5B68C3F303138B
:1015F400074AD35CD840074B18600020FEF7B8FEBA
:10160400002070BD0120FCE70020024000100240D1
:10161400644A000814000020014B1868704700BF9A
:101624001400002070B582B00446036813F0010F63
:1016340034D03E4BDB6913F0805F48D13B4BDA6911
:1016440042F08052DA61DB6903F080530193019B1D
:101654000125374B1B6813F4807F3AD0334B1B6A48
:1016640013F4407311D0626802F440729A420CD0B1
:101674002E4A136A23F440702E4901260E60002678
:101684000E60106213F0010F37D1284A136A23F455
:10169400407361680B431362002D3FD1236813F03C
:1016A400020F06D0214A536823F44043A1680B4338
:1016B4005360236813F0100F35D01C4A536823F489
:1016C4008003E1680B435360002002B070BD002525
:1016D400BFE7174A136843F480731360FEF78CFE68
:1016E4000646134B1B6813F4807FB7D1FEF784FEC4
:1016F400801B6428F5D90320E7E7FEF77DFE064644
:101704000A4B1B6A13F0020FBFD1FEF775FE801B54
:1017140041F288339842F3D90320D6E7D36923F002
:101724008053D361BAE70020CFE700BF0010024026
:10173400007000404004424270B4036A23F0010385
:101744000362036A4268846924F073040D6845EAFD
:10175400040623F002048B6823430D4DA84209D0EC
:101764000B4DA8420DD0426086614A684263036211
:1017740070BC704723F00803CC68234323F00403B0
:10178400EEE722F440724C6914438A692243EAE783
:10179400002C014030B4036A23F480730362036AAB
:1017A4004268C46924F073040D682C4323F4007365
:1017B4008D6843EA05230F4DA84209D00D4DA84278
:1017C4000ED04260C4614A68C263036230BC704791
:1017D40023F40063CD6843EA052323F48063EDE733
:1017E40022F440524D6942EA05128D6942EA05121B
:1017F400E7E700BF002C014030B4036A23F48053B0
:101804000362036A4468C26922F4E6420D6842EA4C
:10181400052223F400538D6843EA0533074DA8429B
:1018240006D04460C2614A680264036230BC7047F7
:1018340024F480444D6944EA8514F2E7002C014005
:1018440010B4036A046A24F001040462846924F075
:10185400F00444EA021223F00A030B438261036298
:1018640010BC704710B4036A23F010030362846948
:10187400036A24F4704444EA023223F0A00343EAE6
:1018840001138261036210BC7047836823F0700304
:1018940041F0070119438160704710B4846824F44F
:1018A4007F4442EA03230B432343836010BC704705
:1018B400022380F83D300268136843F0010313608B
:1018C400012380F83D3000207047704790F83C3089
:1018D400012B7DD010B50446012380F83C3002234F
:1018E40080F83D300268936823F47F4323F0770344
:1018F40093600B68402B57D010D9702B3ED01FD863
:10190400502B47D0602B32D1CA6849680068FFF772
:10191400A9FF60212068FFF7B8FF28E0102B4DD005
:1019240008D9202B4FD0302B21D130210068FFF76C
:10193400ACFF1CE0DBB900210068FFF7A6FF16E04E
:10194400B3F5805F0ED0B3F5005F10D1CB684A6861
:1019540089680068FFF7A1FF2268936843F4804315
:10196400936004E00268936823F007039360012303
:1019740084F83D30002084F83C0010BDCB684A68F0
:1019840089680068FFF789FF2268936843F077034A
:101994009360ECE7CA6849680068FFF751FF50217B
:1019A4002068FFF772FFE2E7CA6849680068FFF73A
:1019B40047FF40212068FFF768FFD8E7102100683F
:1019C400FFF763FFD3E720210068FFF75EFFCEE750
:1019D4000220704703681B4A90420AD0B0F1804F3E
:1019E40007D0A2F59432904203D002F5806290426F
:1019F40003D123F070034A681343124A90420AD079
:101A0400B0F1804F07D0A2F59432904203D002F592
:101A14008062904203D123F44073CA68134323F0D5
:101A240080034A69134303608B68C3620B68836253
:101A3400044B984202D00123436170470B6903634E
:101A4400F9E700BF002C0140A8B110B5044690F896
:101A54003D305BB1022384F83D30211D2068FFF73F
:101A6400B9FF012384F83D30002010BD80F83C30DC
:101A740001F08EFBEEE701207047A8B110B50446D3
:101A840090F83D305BB1022384F83D30211D20687D
:101A9400FFF7A0FF012384F83D30002010BD80F83B
:101AA4003C30FFF712FFEEE70120704730B4036AC1
:101AB40023F010030362036A4468826922F4E64255
:101AC4000D6842EA052223F020038D6843EA0513DA
:101AD4000E4DA84209D00D4DA8420ED0446082613B
:101AE4004A688263036230BC704723F08003CD6888
:101AF40043EA051323F04003EDE724F440644D6901
:101B040044EA85048D6944EA8504E7E7002C014032
:101B140038B590F83C30012B66D00D4604460123BD
:101B240080F83C30022380F83D300C2A1AD8DFE8D4
:101B340002F007191919201919193419191947002C
:101B44000068FFF7F9FD2268936943F00803936185
:101B54002268936923F004039361226893692969D5
:101B64000B439361012384F83D30002084F83C004A
:101B740038BD0068FFF79AFF2268936943F4006355
:101B840093612268936923F4806393612268936963
:101B9400296943EA01239361E4E70068FFF7FAFD4A
:101BA4002268D36943F00803D3612268D36923F020
:101BB4000403D3612268D36929690B43D361D1E754
:101BC4000068FFF719FE2268D36943F40063D36108
:101BD4002268D36923F48063D3612268D3692969B5
:101BE40043EA0123D361BDE70220C1E710B4012316
:101BF40003FA01F4036A23EA04030362036A8A40D2
:101C04001343036210BC704710B5044601220068F8
:101C1400FFF7ECFF2368074A934206D02268136853
:101C240043F001031360002010BD5A6C42F40042DB
:101C34005A64F3E7002C014090F83C30012B22D089
:101C440030B4012280F83C20022380F83D3004683F
:101C5400636823F070036360046863680D682B4352
:101C640063600468A36823F08003A3600468A36826
:101C740049680B43A36080F83D20002380F83C3082
:101C8400184630BC70470220704784B001A880E831
:101C94000E00002004B07047B0F8403043F43F43D6
:101CA400A0F8403000207047B0F8403023F474535B
:101CB4005B045B0CA0F840300020704700207047A4
:101CC40084B038B505AC84E80E000123A0F8403098
:101CD4000024A0F84040A0F84440A0F85040FFF78A
:101CE400DBFF2046BDE8384004B0704710B4CB7821
:101CF400032B0FD8DFE803F0026D54600A7830F844
:101D040022309BB223F4EC4323F0700343F40073BA
:101D140020F822300A7830F8223023F0F0031B0533
:101D24001B0D134343F4004343F0800320F8223097
:101D34008B7A002B40F0AF804B78002B56D08A88EA
:101D44005208B0F850300C7803EBC40300EB4303A3
:101D54005200C3F800240A7830F8223013F0400F00
:101D64000BD030F8223023F0F0031B051B0D43F495
:101D7400004343F0C00320F822300A7830F82230C0
:101D84009BB223F4E04323F0400383F0200343F4A5
:101D9400004343F0800320F82230002010BC704739
:101DA4000A7830F822309BB223F4EC4323F070031A
:101DB4009BB220F82230ADE70A7830F822309BB28B
:101DC40023F4EC4323F0700343F4C06320F822307F
:101DD400A0E70A7830F822309BB223F4EC4323F0D6
:101DE400700343F4806320F8223093E78A88520812
:101DF400B0F850300C7803EBC403043300EB430316
:101E04005200C3F80024B0F850300A7803EBC20340
:101E1400063300EB43030C693E2C30D9C4F34F1254
:101E240014F01F0F01D1013A92B26FEAC2626FEA55
:101E3400524292B2C3F800240A7830F8223013F4E4
:101E4400804F0BD030F8223023F0F0031B051B0D1C
:101E540043F4404343F0800320F822300A7830F8FA
:101E640022309BB223F4804323F0700383F4405365
:101E740043F4004343F0800320F822308DE7C4F399
:101E84004F0214F0010F01D0013292B2920292B2C9
:101E9400C3F80024D0E70A7830F8223023F4F8732A
:101EA4001B051B0D43F4014343F0800320F822304B
:101EB400CA885208B0F850300C7803EBC40300EB26
:101EC40043035200C3F800240A895208B0F8503082
:101ED4000C7803EBC403043300EB43035200C3F850
:101EE40000244B78002B4BD10A7830F8223013F4BD
:101EF400804F0BD030F8223023F0F0031B051B0D6C
:101F040043F4404343F0800320F822300A7830F849
:101F1400223013F0400F0BD030F8223023F0F003BE
:101F24001B051B0D43F4004343F0C00320F822308B
:101F34000A7830F8223023F0F0031B051B0D43F41C
:101F4400004343F0C00320F822300A7830F82230EE
:101F54009BB223F4804323F0700383F4405348F28C
:101F64008004234320F822300A7830F822309BB2D0
:101F740023F4E04323F04003234320F822300CE70A
:101F84000A7830F8223013F4804F0BD030F8223026
:101F940023F0F0031B051B0D43F4404343F080037F
:101FA40020F822300A7830F8223013F0400F0BD09A
:101FB40030F8223023F0F0031B051B0D43F40043DB
:101FC40043F0C00320F822300A7830F8223023F09E
:101FD400F0031B051B0D43F4404343F0800320F83A
:101FE40022300B7830F8232092B222F4E04222F01F
:101FF400400248F28004224320F823200A7830F873
:1020040022309BB223F4804323F07003234320F84F
:102014002230C2E68B7A002B44D14B780BB30A787A
:1020240030F8223013F0400F0BD030F8223023F078
:10203400F0031B051B0D43F4004343F0C00320F8D9
:1020440022300A7830F822309BB223F4E04323F0A4
:10205400400343F4004343F0800320F8223000207F
:1020640070470A7830F8223013F4804F0BD030F8E0
:10207400223023F0F0031B051B0D43F4404343F0CF
:10208400800320F822300A7830F822309BB223F4FF
:10209400804323F0700343F4004343F0800320F8AB
:1020A4002230DCE710B44B78002B4BD10A7830F89F
:1020B400223013F4804F0BD030F8223023F0F00399
:1020C4001B051B0D43F4404343F0800320F82230EA
:1020D4000A7830F8223013F0400F0BD030F8223059
:1020E40023F0F0031B051B0D43F4004343F0C0032E
:1020F40020F822300A7830F8223023F0F0031B0550
:102104001B0D43F4004343F0C00320F822300B7846
:1021140030F8232092B222F4804222F0700248F276
:102124008004224320F823200A7830F822309BB21E
:1021340023F4E04323F04003234320F8223000201B
:1021440010BC70470A7830F8223013F4804F0BD05B
:1021540030F8223023F0F0031B051B0D43F44043F9
:1021640043F0800320F822300A7830F8223013F04C
:10217400400F0BD030F8223023F0F0031B051B0D69
:1021840043F4004343F0C00320F822300A7830F8C7
:10219400223023F0F0031B051B0D43F4404343F0AE
:1021A400800320F822300B7830F8232092B222F4F6
:1021B400E04222F0400248F28004224320F8232027
:1021C4000A7830F822309BB223F4804323F0700362
:1021D400234320F82230B2E70A788AB14B7813BB44
:1021E40030F822309BB223F4804323F0700383F44D
:1021F400805343F4004343F0800320F8223010E07E
:1022040030F822309BB223F4804323F0400383F45C
:10221400805383F0100343F4004343F0800320F819
:1022240022300020704730F822309BB223F4E04380
:1022340023F0400383F0100343F4004343F080038E
:1022440020F82230EDE74B781BB30A7830F82230BF
:1022540013F0400F0BD030F8223023F0F0031B05AD
:102264001B0D43F4004343F0C00320F822300A78E6
:1022740030F822309BB223F4E04323F0400383F090
:10228400300343F4004343F0800320F8223000205D
:1022940070470A7830F8223013F4804F0BD030F8AE
:1022A400223023F0F0031B051B0D43F4404343F09D
:1022B400800320F822300A7830F822309BB223F4CD
:1022C400804323F0700383F4405343F4004343F00A
:1022D400800320F82230DAE711B98023A0F84C30CB
:1022E400002070470020704700207047B0F8440079
:1022F40070470020704701335B1000EB420202F587
:10230400806263B110B40C78487844EA002422F85F
:10231400044B0231013B002BF5D110BC70477047D0
:10232400F8B58A694D78012D34D00B69934280F059
:10233400EA80D21A8A618A7A002A40F0F480B0F8DE
:1023440050200C7802EBC402063200EB42023E2B12
:1023540040F2DD80C3F34F1413F01F0F01D1013C91
:10236400A4B26FEAC4646FEA5444A4B2C2F800444D
:102374000A7830F822309BB223F4804323F07003B0
:1023840083F4405343F4004343F0800320F82230A5
:102394000020F8BD0F69974225D2D21B8A610E46F0
:1023A40004468B7A1BB30B7830F8232012F0400FCD
:1023B40069D0002D37D1B0F8502002EBC3030633A7
:1023C40000EB43033E2F22D9C7F34F1217F01F0F20
:1023D40001D1013A92B26FEAC2626FEA524292B2FA
:1023E400C3F8002428E000238B611746D7E7BBB26B
:1023F4008A884969FFF77FFFB4F85030327803EBDD
:10240400C203023304EB4303C3F800742AE0C7F3A6
:102414004F0217F0010F01D0013292B2920292B230
:10242400C3F8002408E0B0F8502002EBC3030233E1
:1024340000EB4303C3F800743289BBB271692046D0
:10244400FFF759FF7378002B4DD1327834F82230DE
:1024540023F0F0031B051B0D43F4004343F0C003BA
:1024640024F82230327834F822309BB223F4E0434B
:1024740023F0400383F0300343F4004343F080032C
:1024840024F8223084E71DBBB0F8502002EBC303CC
:10249400023300EB43033E2F0ED9C7F34F1217F05C
:1024A4001F0F01D1013A92B26FEAC2626FEA52423F
:1024B40092B2C3F8002414E0C7F34F0217F0010FDF
:1024C40001D0013292B2920292B2C3F8002408E021
:1024D400B0F8502002EBC303023300EB4303C3F80C
:1024E4000074F288A9E7012BBCD1327834F8223089
:1024F40023F0F0031B051B0D43F4404343F080031A
:1025040024F82230AEE700238B61134613E7C3F3AC
:102514004F0413F0010F01D00134A4B2A402A4B2F9
:10252400C2F8004424E7BDB9B0F850200C7802EB9F
:10253400C402023200EB42023E2B28D9C3F34F14EB
:1025440013F01F0F01D1013CA4B26FEAC4646FEA17
:102554005444A4B2C2F800444A7882BBB0F8502074
:102564000C7802EBC402063200EB42023E2B1AD96D
:10257400C3F34F1413F01F0F01D1013CA4B26FEA4F
:10258400C4646FEA5444A4B2C2F80044F0E6C3F34E
:102594004F0413F0010F01D00134A4B2A402A4B279
:1025A400C2F80044D8E7C3F34F0413F0010F01D07D
:1025B4000134A4B2A402A4B2C2F80044D8E6012AA9
:1025C4007FF4D6AEB0F850200C7802EBC40202328D
:1025D40000EB4202C2F80034CAE601335B1000EBA0
:1025E400420202F5806204E0106821F8020B013B0C
:1025F4000432002BF8D17047FEE7000008B503460B
:102604000C4A12685AB10B4A1068033323F00303CF
:102614000344094A934206D8064A136008BD054A92
:1026240006491160EFE701F03BFD0C2303604FF016
:10263400FF30F3E700020020004C0020902100202E
:1026440001230360014B0B60704700BF0C000020A6
:102654000FB400B583B004AB53F8042B019380216D
:10266400064801F05BFD002803DD0146034800F045
:1026740037F803B05DF804EB04B07047080200209B
:102684002DE9F04385B004460F4643560BB10E4680
:102694001EE0042528462146ABBE0446384605B054
:1026A400BDE8F08314F9011B04AA1A4402F8101CB3
:1026B4000133AB42F6D304AA1344002203F8102CCE
:1026C4004FF00408E94640464946ABBE8046761BB7
:1026D400002EE3D03546102E28BF10250023E8E74E
:1026E40008B5FFF7CDFF08BD08B500F099F8024A18
:1026F400024B9A6008BD00BF0000000800ED00E036
:1027040008B500F0B3F808BDF8B504460D46174601
:102714001E462748FFF79CFF21682648FFF798FFCD
:1027240061682548FFF794FFA1682448FFF790FFEC
:10273400E1682348FFF78CFF21692248FFF788FFEF
:1027440061692148FFF784FFA1692048FFF780FFF2
:10275400E1691F48FFF77CFF1E48FFF779FF294610
:102764001D48FFF775FF1D4CE16A1D48FFF770FF18
:10277400216B1C48FFF76CFFE16B1B48FFF768FFF8
:1027840015F0800F0AD115F4004F0CD11748FFF74C
:102794005FFF06991648FFF75BFFF8BD39461548F9
:1027A400FFF756FFEFE731461348FFF751FFEDE718
:1027B4001C4900082C4900083C4900084C49000801
:1027C4005C4900086C4900087C4900088C490008F1
:1027D4009C490008AC490008B849000800ED00E035
:1027E400C8490008D8490008E8490008184A000800
:1027F400204A0008F8490008084A000883691A8832
:102804008A4201D0002070470268033A012A03D8A3
:10281400023383610120704700207047FEE7000007
:102824000F4B1A6842F001021A6059680D4A0A40B7
:102834005A601A6822F0847222F480321A601A688C
:1028440022F480221A605A6822F4FE025A604FF47D
:102854001F029A60044B4FF000629A60704700BFF9
:10286400001002400000FFF800ED00E01F4B5B6821
:1028740003F00C03042B14D0082B16D01BB11C4BF3
:102884001C4A1A6002E01A4B1A4A1A60174B5B681A
:10289400C3F30313184AD15C154A1368CB40136081
:1028A4007047134B134A1A60F0E7104A5368526892
:1028B400C3F38343023312F4803F0AD00B4A5268B5
:1028C40012F4003F0BD00D4A02FB03F3084A1360D5
:1028D400DCE70A4A02FB03F3054A1360D6E7054A1C
:1028E40002FB03F3024A1360D0E700BF001002406A
:1028F4001400002000127A00644A000800093D0018
:1029040070B588B0284B9A6942F004029A619A69BA
:1029140002F004020092009A9A6942F008029A6155
:102924009A6902F008020192019A9A6942F010022F
:102934009A619A6902F010020292029A9A6942F02C
:1029440020029A619B6903F020030393039B174DB4
:10295400002220212846FDF7CBFE4FF400530493B8
:10296400134B05930024069404A91248FDF7D6FDE1
:102974000C23049302260596079604A92846FDF71E
:10298400CDFD2023049301230593079604A928462B
:10299400FDF7C4FD224621462820FDF745FD2820E9
:1029A400FDF776FD08B070BD00100240000801403C
:1029B4000000211000100140C0F30123032B27D88D
:1029C400DFE803F0020A121CC3B203EB830303EB38
:1029D4008303980080B27047C0B2C0EB401300EB91
:1029E4008300C30098B27047C0B2C0EB401300EB41
:1029F400830000EB8000C30098B27047C0B2C0EB04
:102A0400401300EB8300C0EB0010430198B2704701
:102A14000020704738B50C4640F6FC7303EA1051A9
:102A2400118003EA902151801840908003EA1453E6
:102A3400D380C4F38900FFF7BFFF0A4D2860C4F3B5
:102A44000930FFF7B9FF084C2060FDF7D5FC236877
:102A54001844064B18601B682A681344044A136020
:102A640038BD00BFC8040020CC04002000090020A9
:102A740004090020002304E051F8232040F8232017
:102A84000133F92BF8DD704710B5094B1870094C68
:102A9400094B53F820102046FFF7ECFF074B1C604E
:102AA400074B00221A70074B01221A7010BD00BF99
:102AB4008A020020140500201C00002010050020BC
:102AC4008902002030000020B0B500AF03787BB944
:102AD4004078042807D8FFF7D7FF12212B4800F0CD
:102AE40003FCBD46B0BD1121294800F0FDFBF8E709
:102AF400022B0CD0042B0FD0062B12D000238B42B8
:102B04003FD2C25C0D2A3CD00133DBB2F7E701218E
:102B1400204800F0E9FBE4E70B211F4800F0E4FB48
:102B2400DFE70121F92909D81C4B53F8213003F0C0
:102B34000303032B02D00231C9B2F3E70131C9B256
:102B44006C468B000A3303F4FF63ADEB030D684658
:102B540000220FE0114B53F822502B0A03F0FF130D
:102B64002D0205F0FF252B434FEA334340F8223072
:102B74000132D2B28A42EDD3890000F0B5FBA546FA
:102B8400AFE7194600F0B0FBABE700BF844A00088A
:102B9400984A00088A020020AC4A00081405002064
:102BA40008B5FDF71DFCFDF7A6FCFDF725FC084B59
:102BB40018601A68074B1B689A4208D3064B012217
:102BC4001A70064B1968034A13680B44136008BD56
:102BD400FC080020340000203000002018000020F1
:102BE400034B4FF400525A61024B01221A70704792
:102BF4000004014088020020FEE7000000B58FB009
:102C04003D483E4B036000234360836040F6FF72FF
:102C1400C260036180238361FEF716FF002842D15E
:102C24000EA94FF4805341F8103D3348FEF74EFE91
:102C340000283DD13048FEF720FF00283DD1002375
:102C44000893099308A92C48FEF7F6FF002839D108
:102C540060230193002202920392059201A926485F
:102C6400FEF756FF002832D10023029304220DEB15
:102C740002012148FEF74CFF70BB00230293082297
:102C840001A91D48FEF744FF58BB002302930C2200
:102C940001A91948FEF73CFF40BB174800F08EFA23
:102CA4000FB05DF804FB4FF48E711548FFF7A4FFD5
:102CB40040F221111248FFF79FFF40F225111048FE
:102CC400FFF79AFF4FF496710D48FFF795FF40F216
:102CD40035110B48FFF790FF40F23B110848FFF70E
:102CE4008BFF40F241110648FFF786FF40F247117F
:102CF4000348FFF781FF00BFD00400200004004018
:102D0400744A000808B50648064B0360FDF7F7FB54
:102D140000B908BD4FF483710348FFF76DFF00BF8E
:102D2400C004002000300240744A000808B50420A2
:102D3400FDF7D0FBFEF770FC064BA3FB00308009C7
:102D4400FDF7B2FB00B908BD4FF4C3710248FFF7A9
:102D540053FF00BFD34D6210744A000800B595B00C
:102D640001220A924FF480330B9300210C910E92AE
:102D74000222119212934FF4E01313930AA8FEF760
:102D84003DF978BB0F230593022106910023079395
:102D94004FF480620892099305A8FEF781FB28BBD3
:102DA400102301930023049301A8FEF73BFC08BB06
:102DB40000224FF0E0611046FEF70EFBFEF72CFCFC
:102DC4000E4BA3FB00308009FDF76EFB0420FDF7DA
:102DD40081FB002211464FF0FF30FDF725FB15B0B3
:102DE4005DF804FBDB210648FFF706FFE8210448F1
:102DF400FFF702FFEE210248FFF7FEFED34D6210FB
:102E0400744A000810B588B004466023019303880F
:102E1400029300220392059201A92248FEF778FE4C
:102E240058BB6388029304220DEB02011D48FEF790
:102E34006FFE38BBA3880293082201A91948FEF744
:102E440067FE20BBE38802930C2201A91548FEF714
:102E54005FFE08BB134C00212046FEF7D5FE04217B
:102E64002046FEF7D1FE08212046FEF7CDFE0C21B8
:102E74002046FEF7C9FE08B010BD4FF4CA710A48D7
:102E8400FFF7BAFE4FF4CD710748FFF7B5FE4FF4D4
:102E9400D0710548FFF7B0FE4FF4D3710248FFF735
:102EA400ABFE00BFD0040020744A000810B588B0FF
:102EB400FDF784FAFFF752FFFFF722FDFFF79EFEAE
:102EC40000F0A4F9FFF71EFFFFF730FF734C204614
:102ED400FEF7EEFC00212046FEF796FE0421204674
:102EE400FEF792FE08212046FEF78EFE0C212046B6
:102EF400FEF78AFE00230693079304930593029337
:102F04000393674B1878FFF7BFFD664B1B6813F4F8
:102F1400003FFAD008A8062300F8193D6421FFF702
:102F2400D3FD8EE0FDF768FA5F4B1B6898421AD90F
:102F3400BDF81030ADF81830BDF81230ADF81A30C5
:102F4400BDF81430ADF81C30BDF81630ADF81E30A5
:102F5400564B00221A70564B1A68564B1A6006A834
:102F6400FFF750FF65E0BDF80830BDF818201344A2
:102F7400ADF81830BDF80A30BDF81A201344ADF886
:102F84001A30BDF80C30BDF81C201344ADF81C30C9
:102F9400BDF80E30BDF81E201344ADF81E30464B6C
:102FA4000A221A60DBE7454B454A1A6004AAFFF778
:102FB40031FDBDF91030BDF918209B1A414A116842
:102FC400414CA4FB010141F3CF0193FBF1F3ADF8B4
:102FD4000830BDF91210BDF91A30C91A1068A4FBE3
:102FE400003040F3CF0091FBF0F1ADF80A10BDF9C9
:102FF4001410BDF91C30C91A1068A4FB003040F34A
:10300400CF0091FBF0F1ADF80C10BDF91630BDF90D
:103014001E105B1A1268A4FB021242F3CF0293FB48
:10302400F2F3ADF80E30214B01221A70224B0A2222
:103034001A60264B00221A70254B1B78DBB2012B39
:1030440018D0224B1B78002BF6D0184B1B78DBB220
:10305400012B3FF467AF19490A68134653F8040B70
:103064000B60516801F00302032A9CD00433134A15
:1030740013609BE70A4B1B78032B0AD80133084AD9
:103084001370074B1878FFF7FFFC114B00221A70DE
:10309400D7E7034B00221A70F3E700BFD0040020E7
:1030A4008A0200200010024000090020890200204A
:1030B400040900203400002018000020100500201E
:1030C40014050020CC040020CDCCCCCC3000002052
:1030D4008802002000B583B0204B9A6942F00102B7
:1030E4009A619B6903F001030193019B0320FDF79F
:1030F40089F9002211466FF00B00FDF795F90022C3
:1031040011466FF00A00FDF78FF9002211466FF0A7
:103114000900FDF789F9002211466FF00400FDF75C
:1031240083F9002211466FF00300FDF77DF90022B8
:1031340011466FF00100FDF777F9002211464FF0B8
:10314400FF30FDF771F9064A536823F0E06343F05A
:103154000073536003B05DF804FB00BF001002402D
:10316400000001400268094B9A4200D0704782B0C7
:10317400A3F500535A6942F040025A615B6903F0B7
:1031840040030193019B02B0704700BF003002402E
:103194000268094B9A4200D0704782B003F50333AA
:1031A400DA6942F00202DA61DB6903F00203019397
:1031B400019B02B0704700BF0004004002680C4B42
:1031C4009A4200D0704710B584B0C0230093022403
:1031D4000194039469460748FDF7A0F9032300937B
:1031E4000194039469460448FDF798F904B010BDAE
:1031F4000004004000080140000C014008B50248EA
:10320400FDF7C8FD08BD00BF2C1B002010B5094CFC
:1032140000220949204600F01FFA0849204600F020
:1032240032FA0749204600F0F5FE204600F032FA53
:1032340010BD00BF080900205000002084000020B9
:103244003800002000207047202803D0212814D003
:10325400002070470B784A7843EA02238A7843EACD
:103264000243CA7843EA02630C4A13600B79137170
:103274004B7953718B799371EAE7084B1A780A708A
:103284005A784A709A788A70DA78CA701A790A7108
:103294005A794A719B798B71DAE700BF48000020A4
:1032A40038B50546FFF710FC044C2946204600F0CB
:1032B400C0FE204600F0DAFE002038BD08090020D8
:1032C40010B5064C00220649204600F0AAFE054926
:1032D400204600F0AEFE002010BD00BF080900200B
:1032E4002C1300202C0B0020094BD3F81832D3F8F0
:1032F40014320BB10120704710B50A460146044C44
:10330400204600F08EFE204600F099FE10BD00BF5E
:103314000809002002680E4B9A4200D0704700B59D
:1033240083B003F5DA33DA6942F40002DA61DB6967
:1033340003F400030193019B002211461420FDF7BE
:1033440073F81420FDF7A4F803B05DF804FB00BF84
:10335400005C004008B500F22C41D0F85C0400F099
:10336400B2F908BD08B500EB4113D3F83C22D0F8FC
:103374005C0400F0D5F908BD08B500EB4113DA6B25
:10338400D0F85C0400F001FA08BD08B5D0F85C047C
:1033940000F084FA08BD10B504460121D0F85C049D
:1033A40000F06AFAD4F85C0400F047FA10BD00009B
:1033B40010B50446D0F85C0400F061FAA36923B1A7
:1033C400024A136943F00603136110BD00ED00E0E7
:1033D40008B5D0F85C0400F05BFA08BD10B50446EB
:1033E4002048C0F85C44C4F820021F4B0360082343
:1033F4004360022383600323C36000238361C361AA
:103404000362FDF77BF930BB182300221146D4F880
:103414002002FDF7C4FD582300228021D4F82002A5
:10342400FDF7BDFDC02300228121D4F82002FDF761
:10343400B6FD4FF4887300220121D4F82002FDF771
:10344400AEFD4FF4807300228221D4F82002FDF7F0
:10345400A6FD002010BD4FF48D710448FFF7CCFB8E
:10346400D2E700BF2C1B0020005C0040BC4A0008CF
:1034740008B5D0F82002FDF7ACF918B1022803D042
:10348400022008BD0020FCE70120FAE710B51C4625
:1034940013462246D0F82002FDF7C6F918B10228D7
:1034A40003D0022010BD0020FCE70120FAE708B594
:1034B400D0F82002FDF7E1F918B1022803D0022068
:1034C40008BD0020FCE70120FAE708B5D0F8200287
:1034D400FDF710FD18B1022803D0022008BD00201A
:1034E400FCE70120FAE708B5D0F82002FDF730FD2B
:1034F40018B1022803D0022008BD0020FCE70120F7
:10350400FAE7D0F8203211F0800F06D101F07F01E4
:1035140003EB411191F82A02704701F07F0103EB9C
:10352400411191F82A00704708B5D0F82002FDF740
:1035340067F918B1022803D0022008BD0020FCE777
:103544000120FAE708B5D0F82002FDF7E3F918B135
:10355400022803D0022008BD0020FCE70120FAE77E
:1035640008B5D0F82002FDF7AFF918B1022803D04E
:10357400022008BD0020FCE70120FAE708B5D0F8D6
:103584002002FDF7C0F908BD004870478C020020F6
:103594007047704712230B80004870476C0000206E
:1035A40004230B80004870478000002008B50A46B9
:1035B40028B10549054800F0DEFB034808BD02496F
:1035C400024800F0D8FBF8E78C1F0020004B0008ED
:1035D40010B5044C0A462146034800F0CCFB2046B3
:1035E40010BD00BF8C1F0020EC4A000808B50A4635
:1035F40028B10549054800F0BEFB034808BD02494F
:10360400024800F0B8FBF8E78C1F0020184B0008B4
:1036140008B50A4628B10549054800F0ACFB034843
:1036240008BD0249024800F0A6FBF8E78C1F002001
:10363400D04A000808B50A4628B10549054800F0F3
:103644009AFB034808BD0249024800F094FBF8E7DE
:103654008C1F0020DC4A000898B108B50346D0F856
:10366400140210B10020C3F8140209B1C3F81012F7
:103674001846012380F8FC310270FFF7AFFE0020EA
:1036840008BD0220704719B1C0F814120020704719
:103694000220704708B5FFF7EBFE002008BD08B50F
:1036A400D0F8143233B11B68984708B9002008BD1C
:1036B4000220FCE70220FAE708B5D0F814325B6870
:1036C4009847002008BD38B5044600F50275284621
:1036D40000F00CF90123C4F8F431B4F80E32C4F844
:1036E400F83194F8081201F01F03012B0ED03BB1FE
:1036F400022B10D001F080012046FFF7E6FE03E024
:103704002946204600F06BFA002038BD29462046A1
:1037140000F089FAF8E72946204600F0A0FAF3E71A
:1037240010B5044621BB1346D0F8F421032A01D076
:10373400002010BDD0F80C11D0F8102191420CD803
:10374400D0F814321B6923B190F8FC21032A00D16C
:103754009847204600F058FBEAE7891AC0F80C1194
:103764008A4228BF0A4692B2194600F045FBDFE7B9
:103774000A46D0F814329B69002BD9D090F8FC117A
:103784000329D5D111469847D2E710B5044600293C
:1037940046D11346D0F8F421022A05D094F8003219
:1037A400012B39D0002010BDC169026A914219D899
:1037B4008169B1FBF2F302FB13132BB98A4203D8DC
:1037C400D0F8F83199421AD3D4F81432DB682BB10B
:1037D40094F8FC21032A01D120469847204600F0A2
:1037E4001EFBDBE78A1AC26192B2194600F0EDFAB9
:1037F40000231A4619462046FFF7B2FECEE7002200
:10380400114600F0E2FA0021C4F8F8110B460A460A
:103814002046FFF7A5FEC1E7002384F80032C1E784
:103824000A46D0F814325B69002BBBD090F8FC1127
:103834000329B7D111469847B4E738B50446402365
:1038440000221146FFF722FE4025C4F810512B46F2
:10385400002280212046FFF719FE2562012384F807
:10386400FC31D4F818322BB1D4F814325B682179C6
:1038740020469847002038BD01740020704790F816
:10388400FC3180F8FD31042380F8FC3100207047BE
:1038940090F8FD3180F8FC310020704708B590F8AD
:1038A400FC31032B01D0002008BDD0F81432DB69B1
:1038B400002BF8D09847F6E7002302E00133DBB28F
:1038C40001300278002AF9D1184670474B88012B41
:1038D4000BD110B50446C0F80432D0F814329B68FA
:1038E4009847204600F090FA10BD70470B7803709B
:1038F4004B7843708B78CA7803EB022343800B79AF
:103904004A7903EB022383808B79CA7903EB022380
:10391400C380704710B504468021FFF7D6FD00210F
:103924002046FFF7D2FD10BD30B583B004460D46E6
:103934004A88130A013B062B00F28180DFE803F07A
:103944000413277F7F637000D0F810321B680DF1D9
:103954000601007C9847BDF8062012B1EB88002BC5
:1039640071D103B030BD037C43B9D0F814329B6AE3
:103974000DF10600984702234370ECE7D0F81432A7
:10398400DB6A0DF10600984702234370E3E7D2B2E5
:10399400052A34D8DFE802F0030B131B232BD0F8DD
:1039A40010325B680DF10601007C9847D3E7D0F82C
:1039B40010329B680DF10601007C9847CBE7D0F8E4
:1039C4001032DB680DF10601007C9847C3E7D0F89C
:1039D40010321B690DF10601007C9847BBE7D0F853
:1039E40010325B690DF10601007C9847B3E7D0F80B
:1039F40010329B690DF10601007C9847ABE729461C
:103A0400FFF788FFADE7037C33B9D0F814325B6B62
:103A14000DF1060098479EE72946FFF77BFFA0E7D4
:103A2400037C43B9D0F814321B6B0DF106009847A0
:103A3400072343708FE72946FFF76CFF91E7294678
:103A4400FFF768FF8DE79A4228BF1A46ADF80620B3
:103A54000146204600F0ACF983E738B504468B886C
:103A6400E3B9CB88D3B98D7805F07F0590F8FC31A4
:103A7400032B0CD080F8FE512946FFF755FD204654
:103A840000F0C2F935B1022384F8FC3109E0FFF7F4
:103A940041FF06E0012384F8FC3102E02046FFF7F1
:103AA40039FF38BD38B504460D468978254B197061
:103AB400012909D890F8FC31022B09D0032B1CD022
:103AC4002946FFF727FF02E02946FFF723FF38BD09
:103AD40081B14160032380F8FC31FFF7E0FD022847
:103AE40003D0204600F090F9F1E729462046FFF77D
:103AF40011FFECE700F088F9E9E789B143689942DE
:103B04001DD0D9B2FFF7D8FD0E4B1978616020465D
:103B1400FFF7C5FD02280DD0204600F075F9D6E761
:103B2400022380F8FC314160FFF7C6FD204600F017
:103B34006BF9CCE729462046FFF7ECFEC7E700F017
:103B440063F9C4E7AC04002008B5CB88012B08D185
:103B540090F8FC31022B07D0032B0DD0FFF7DAFECF
:103B640001E0FFF7D7FE08BD0146002341F8083FF6
:103B7400012200F01DF9F6E70122011D00F018F9F9
:103B8400F1E708B590F8FC31023B012B0CD8012376
:103B9400C360D0F804320BB10323C360022200F1E6
:103BA4000C0100F005F908BDFFF7B4FEFBE710B502
:103BB400044690F8FC31023B012B0DD84B88012BB5
:103BC40009D10023C0F80432D0F814329B68984716
:103BD400204600F019F910BDFFF79CFEFBE708B57D
:103BE4004B78092B1CD8DFE803F012181B151B09AE
:103BF400051B0F0CFFF798FE002008BDFFF72DFFF3
:103C0400FAE7FFF74FFFF7E7FFF79EFFF4E7FFF749
:103C1400B8FFF1E7FFF75AFEEEE7FFF7C8FFEBE75F
:103C2400FFF778FEE8E738B504460D4690F8FC3116
:103C3400032B11D10B79012B0BD8D0F814329B68CC
:103C44009847EB880BB1002038BD204600F0DCF823
:103C5400F9E7FFF75FFEF6E7FFF75CFEF3E738B539
:103C640005460C468A880B7803F06003202B05D1A7
:103C7400D0F814329B689847002038BDD1B26378DD
:103C8400012B25D0002B47D0032BF5D190F8FC3124
:103C9400022B05D0032B0AD02146FFF73BFEEBE7AE
:103CA4000029E9D08029E7D0FFF70FFCE4E7638817
:103CB40023B919B1802901D0FFF707FCD5F81432D4
:103CC4009B68214628469847284600F09DF8D3E78C
:103CD40090F8FC31022B05D0032B0AD02146FFF7C4
:103CE40019FEC9E70029C7D08029C5D0FFF7EDFB2D
:103CF400C2E76388002BBFD111F07F0F03D12846A0
:103D040000F082F8B8E7FFF7EEFBD5F814329B68B1
:103D1400214628469847F2E790F8FC31022B05D05B
:103D2400032B09D02146FFF7F5FDA5E711F07F0F1E
:103D3400A2D0FFF7CAFB9FE712F0800F11D101F068
:103D44007F04103400EB041404342846FFF7D9FB35
:103D540070B10123236002222146284600F028F88E
:103D64008AE701F07F04013400EB04140434ECE727
:103D740000232360EFE7D0B170B50D461646044624
:103D8400FFF79AFD0130400080B230802870032391
:103D94006B70022307E001345A1CD2B2E954023397
:103DA400DBB20021A95421780029F4D170BD7047F9
:103DB40010B513460222C0F8F4218361C3610A4698
:103DC4000021FFF7BFFB002010BD08B513460A46CB
:103DD4000021FFF7B7FB002008BD10B513460322EE
:103DE400C0F8F421C0F80831C0F80C310A460021AB
:103DF400FFF7B6FB002010BD08B513460A460021A4
:103E0400FFF7AEFB002008BD08B50423C0F8F43169
:103E140000231A461946FFF795FB002008BD08B594
:103E24000523C0F8F43100231A461946FFF798FB1E
:103E3400002008BDD0F818321BB10020C3F81402CA
:103E440070470220704710B5D0F81842D0F81C32E1
:103E54005BB194F80002FF2807D09B6894F8012214
:103E640021469847FF2384F80032002010BD00004B
:103E74004323038000487047BC0000204323038091
:103E84000048704700010020432303800048704726
:103E9400500100200A230380004870474401002099
:103EA40038B50446D0F81852FFF768FBC5F80C0281
:103EB400D4F818324BB1D4F81C32DB6805F5037121
:103EC400D5F804029847002038BD0220FCE7000022
:103ED40070B505460C46D0F818620B7813F06002F2
:103EE40025D0202A07D1CA883AB9D0F81C329B6859
:103EF400002248789847002070BD13F0800F0BD043
:103F0400D0F81C329B68314660789847E288314685
:103F14002846FFF74DFFEEE74B7886F80032CB8852
:103F240086F80132CA883146FFF757FFE3E74B783A
:103F34000A2BE0D101220249FFF73AFFDBE700BF79
:103F4400AD04002010B504468121FFF7B0FA012129
:103F54002046FFF7ACFA82212046FFF7A8FAD4F8EE
:103F6400183253B1D4F81C325B689847D4F818025D
:103F7400FFF70EFB0023C4F81832002010BD38B53B
:103F84000446037C73BB4FF4007302228121FFF7C4
:103F94007DFA4FF40073022201212046FFF776FADE
:103FA4000823032282212046FFF770FA4FF407709A
:103FB400FFF7EAFA0546C4F8180248B3D4F81C32ED
:103FC4001B6898470023C5F81432C5F81832237CBF
:103FD400A3B14023D5F8042201212046FFF7C0FAFB
:103FE400002038BD402302228121FFF74FFA4023ED
:103FF400022201212046FFF749FAD1E74FF400736A
:10400400D5F8042201212046FFF7AAFA0020E8E7A8
:104014000120E6E719B1C0F81C1200207047022005
:104024007047D0F81832C3F80812C3F810220020E1
:104034007047D0F81832C3F8041200207047D0F843
:1040440018228AB108B5D2F814320BB1012008BD88
:104054000123C2F81432B2F81032D2F808228121B6
:10406400FFF770FA0020F2E702207047D0F8182218
:104074009AB108B5037C3BB14023D2F80422012154
:10408400FFF76EFA002008BD4FF40073D2F8042243
:104094000121FFF765FA0020F5E7022070470000D0
:1040A400014B1868704700BF9401002010B5431EEF
:1040B4000A44914200D110BD11F8014B03F8014F9D
:1040C400F7E730B5141E05469BB0184605DA8B2376
:1040D4004FF0FF302B601BB030BD4FF40273ADF8CE
:1040E4000C300CBF234604F1FF33029305934FF6C3
:1040F400FF7300910491ADF80E3002461E9B694691
:10410400284600F073F8431CBCBF8B232B60002CA3
:10411400E1D00022009B1A70DDE7000007B5009390
:1041240013460A46014603480068FFF7CAFF03B076
:104134005DF804FB940100202DE9F0478E68824667
:104144009E420C469046994637D88A8912F4906F5D
:1041540031D00223256809696F1A656905EB4505A5
:1041640095FBF3F509F101033B449D4238BF1D461D
:10417400530530D5294600F02BFB064650B90C23D5
:104184004FF0FF30CAF80030A38943F04003A38105
:10419400BDE8F0873A462169FFF788FFA38923F435
:1041A400906343F08003A38126613E4426604E461B
:1041B4006561ED1BA5604E4500D94E463246414629
:1041C400206800F09FFAA36800209B1BA36023686B
:1041D4001E442660DCE72A4600F054FB064600280D
:1041E400E2D12169504600F0A7FAC8E72DE9F04F63
:1041F4009DB003938B8980461D060C4616460FD549
:104204000B696BB9402100F0E3FA2060206128B902
:104214000C23C8F800304FF0FF30C7E0402363613F
:104224000023099320238DF8293030234FF0010B0C
:104234008DF82A3037463D4615F8013B0BB1252B46
:104244003ED1B7EB060A0BD05346324621464046D0
:10425400FFF772FF013000F0A480099B53440993D7
:104264003B78002B00F09D8000234FF0FF32CDE916
:104274000523049307938DF853301A932F46052290
:1042840017F8011B4F4800F02FFA049BD0B9D90648
:1042940044BF20228DF853201A0744BF2B228DF8E7
:1042A40053202A782A2A15D02F4600200A25079A57
:1042B400394611F8013B303B092B4DD9B8B10FE019
:1042C4002F46B8E73F4A3D46801A0BFA00F01843E0
:1042D4000490D3E7039A111D12680391002A01DBAD
:1042E400079204E0524243F00203079204933B789E
:1042F4002E2B0CD17B782A2B33D1039B02371A1D2A
:104304001B680392002BB8BF4FF0FF3305932E4D6B
:1043140003223978284600F0E7F938B14023401BDE
:1043240003FA00F0049B013703430493397806220F
:1043340026487E1C8DF8281000F0D6F9002838D0C5
:10434400234B13BB039B073323F007030833039367
:10435400099B4B4409936DE705FB023201200F468C
:10436400A6E700230A25194601370593384610F8B5
:10437400012B303A092A03D9002BC8D00591C6E78E
:1043840005FB012101230746F0E703AB0093224616
:10439400104B04A94046AFF30080B0F1FF3F8146C3
:1043A400D6D1A3895B063FF536AF09981DB0BDE8A9
:1043B400F08F03AB00932246064B04A9404600F05D
:1043C40081F8EAE7284B00082E4B0008324B00081E
:1043D400000000003D4100082DE9F04791461F46CA
:1043E4008A680B6906469342B8BF1346C9F8003081
:1043F40091F843200C46DDF8208012B10133C9F84E
:1044040000302368990642BFD9F800300233C9F856
:104414000030256815F0060507D104F1190AE36890
:10442400D9F800209B1AAB4229DC94F84330226867
:10443400003318BF012392062ED404F143023946F7
:104444003046C047013021D02368E56803F00603F5
:10445400042B18BF0025D9F800204FF0000908BF2D
:10446400AD1AA368226908BF25EAE5759342C4BF63
:104474009B1AED181A344D451AD1002008E0012387
:10448400524639463046C047013003D14FF0FF3021
:10449400BDE8F0870135C2E73020E11881F8430018
:1044A4005A1C94F845102244023382F84310C4E79E
:1044B4000123224639463046C0470130E6D009F18F
:1044C4000109D8E72DE9F04301F1430C0C46097EBC
:1044D40085B06E291746064698460C9A00F0B380BC
:1044E40022D8632936D00AD8002900F0B980582987
:1044F40000F0838004F1420584F8421032E064291C
:1045040001D06929F6D120681368050603F1040176
:104514002AD51B681160002B03DA2D225B4284F834
:1045240043206F480A2239E0732900F09D8008D89F
:104534006F2920D07029DDD1236843F02003236044
:1045440003E0752917D07829D4D17823654884F8F5
:10455400453055E0136804F14205191D1B681160CC
:1045640084F8423001238CE01B6810F0400F116086
:1045740018BF1BB2CFE713682568181D1060280602
:1045840001D51B6802E06806FBD51B886F2914BFA0
:104594000A2208225248002184F843106568002D3D
:1045A400A560C0F29580216821F004012160002BF0
:1045B4003DD1002D40F08E806546082A0BD123683A
:1045C400DB0708D5236962689A42DEBF302305F809
:1045D400013C05F1FF35ACEB05032361CDF8008008
:1045E4003B4603AA21463046FFF7F6FE01304DD183
:1045F4004FF0FF3005B0BDE8F083394884F845102A
:10460400136821681D1D1B6815600A060BD5CA07AF
:1046140044BF41F0200121601BB9226822F020022E
:1046240022601022B7E74D0648BF9BB2EFE765460C
:10463400B3FBF2F102FB1133C35C05F8013D0B46F9
:104644000029F5D1B9E713682568181D6169106060
:1046540028061B6801D5196002E06A06FBD519809B
:10466400002365462361B9E71368191D11601D68AD
:1046740062680021284600F037F808B1401B6060EA
:1046840063682361002384F84330A7E723692A463B
:1046940039463046C0470130AAD023689B0713D45B
:1046A400E068039B9842B8BF1846A3E701234A4633
:1046B40039463046C04701309AD00135E368039A41
:1046C4009B1AAB42F2DCEBE7002504F11909F5E78C
:1046D400002BACD1037804F1420584F842306CE736
:1046E400394B00084A4B000810B5C9B20244904245
:1046F400034601D1002303E01C7801308C42F6D13B
:10470400184610BD884210B501EB020307D8421EBB
:1047140099420AD011F8014B02F8014FF8E783429D
:10472400F5D98118D21AD34200D110BD13F8014D26
:1047340001F8014DF7E7000038B50546002943D0DC
:1047440051F8043C0C1F002BB8BFE41800F0D0F85B
:104754001E4A1368104633B9636014602846BDE8E6
:10476400384000F0C6B8A3420BD9216862189342BE
:1047740001BF1A685B685218226063600460EDE749
:1047840013465A680AB1A242FAD919685818A042C5
:104794000BD120680144581882421960DED1106898
:1047A4005268014419605A60D8E702D90C232B607F
:1047B400D4E7206821188A4201BF11685268091899
:1047C400216062605C60C9E738BD00BFB0040020AE
:1047D40070B5CD1C25F0030508350C2D38BF0C250C
:1047E400002D064601DBA94203D90C2333600020C7
:1047F40070BD00F07DF8214A1468214691B9204C1F
:1048040023681BB9304600F063F82060294630461F
:1048140000F05EF8431C24D10C233046336000F0D2
:1048240068F8E4E70B685B1B18D40B2B0FD90B60FB
:10483400CC18CD50304600F05CF804F10B00231D79
:1048440020F00700C31AD3D05A42E250D0E74B6895
:104854008C4216BF636013600C46EBE70C46496854
:10486400CCE7C41C24F00304A04205D0211A30462E
:1048740000F02EF80130CFD02560DBE7B004002033
:10488400B4040020F8B5074614460E4621B9BDE825
:10489400F8401146FFF79CBF22B9FFF74DFF2546AC
:1048A4002846F8BD00F026F8A0420FD2214638462B
:1048B400FFF78EFF05460028F2D031462246FFF767
:1048C400F5FB31463846FFF737FFE9E73546E7E7BA
:1048D40038B50023054C054608462360FDF78EFED7
:1048E400431C02D1236803B12B6038BDBC040020F3
:1048F4007047704751F8043C181F002BBCBF0B587D
:10490400C018704702030405060708090A0B0C0DBA
:104914000E0F101001020000537461636B20667265
:10492400616D653A0A000000205230203D202025A8
:104934003038580A00000000205231203D20202544
:104944003038580A00000000205232203D20202533
:104954003038580A00000000205233203D20202522
:104964003038580A0000000020523132203D202502
:104974003038580A00000000204C52203D202025E9
:104984003038580A00000000205043203D202025E4
:104994003038580A0000000020505352203D202592
:1049A4003038580A000000004653522F4641523A0C
:1049B4000A0000002043465352203D202025303871
:1049C400580A00002048465352203D202025303804
:1049D400580A00002044465352203D2020253038F8
:1049E400580A00002041465352203D2020253038EB
:1049F400580A0000204D4D464152203D20253038B4
:104A0400580A00002042464152203D2020253038DB
:104A1400580A00004D6973630A000000204C522FAD
:104A24004558435F52455455524E3D202530385821
:104A34000A0000005B486172644661756C745D0A2B
:104A4400000000005B4275734661756C745D0A007A
:104A54005B55736167654661756C745D0A0000009F
:104A6400000000000000000001020304060708091A
:104A74002E2E2F7372632F6D61696E2E63000000FA
:104A8400536574207061747465726E206E756D6206
:104A940065720A00536574207061747465726E20C7
:104AA4006572726F720A00005365742070617474C9
:104AB40065726E0A000000002E2E2F7372632F752C
:104AC4007362645F636F6E662E6300004344432029
:104AD400436F6E666967000043444320496E746502
:104AE400726661636500000053544D6963726F65BB
:104AF4006C656374726F6E696373000053544D3355
:104B040032205669727475616C20436F6D506F72F8
:104B140074000000303030303030303030303141CB
:104B240000000000232D302B2000686C4C006566CB
:104B340067454647003031323334353637383941EA
:104B44004243444546003031323334353637383900
:074B54006162636465660005
:104B5C007856341201FFFFFF100000000402002001
:104B6C000000000000A24A040100000000EC010853
:104B7C0000F0010800F4010800F8010800FC01082D
:104B8C0001FFFFFF01000000C53200084932000898
:104B9C004D320008A53200088025000000000800F6
:104BAC0099350008A5350008D5350008B135000841
:104BBC00F1350008153600083936000812010002DC
:104BCC000202004083044057000201020301FFFF70
:104BDC0004030904833F0008493F0008D53E000840
:104BEC00000000004B3E0008393E0008A53E0008BE
:104BFC00000000000000000000000000813E0008E2
:104C0C00753E00088D3E0008993E000809024300DD
:104C1C00020100C032090400000102020100052457
:104C2C0000100105240100010424020205240600E1
:104C3C00010705820308001009040100020A0000A4
:104C4C00000705010240000007058102400000FF3B
:104C5C0009024300020100C03209040000010202F3
:104C6C0001000524001001052401000104240202A6
:104C7C000524060001070582030800100904010041
:104C8C00020A00000007050102000200070581026C
:104C9C00000200FF0A060002000000400100FFFFB6
:104CAC0009074300020104C032090400000102029A
:104CBC000100052400100105240100010424020256
:104CCC000524060001070582030800FF0904010002
:104CDC00020A0000000705010240000007058102DE
:104CEC00400000FF980100200000000000000000C0
:104CFC0000000000000000000000000000000000A8
:104D0C000000000000000000000000000000000097
:104D1C000000000000000000000000000000000087
:104D2C000000000000000000000000000000000077
:104D3C000000000000000000000000000000000067
:0C4D4C00000000000000000032547698C7
:040000050800010DE1
:00000001FF
